{
  "contractName": "ATOM",
  "abi": [
    {
      "inputs": [],
      "stateMutability": "nonpayable",
      "type": "constructor"
    },
    {
      "anonymous": false,
      "inputs": [
        {
          "indexed": true,
          "internalType": "address",
          "name": "account",
          "type": "address"
        },
        {
          "indexed": true,
          "internalType": "address",
          "name": "operator",
          "type": "address"
        },
        {
          "indexed": false,
          "internalType": "bool",
          "name": "approved",
          "type": "bool"
        }
      ],
      "name": "ApprovalForAll",
      "type": "event"
    },
    {
      "anonymous": false,
      "inputs": [
        {
          "indexed": true,
          "internalType": "address",
          "name": "previousOwner",
          "type": "address"
        },
        {
          "indexed": true,
          "internalType": "address",
          "name": "newOwner",
          "type": "address"
        }
      ],
      "name": "OwnershipTransferred",
      "type": "event"
    },
    {
      "anonymous": false,
      "inputs": [
        {
          "indexed": false,
          "internalType": "address",
          "name": "account",
          "type": "address"
        }
      ],
      "name": "Paused",
      "type": "event"
    },
    {
      "anonymous": false,
      "inputs": [
        {
          "indexed": true,
          "internalType": "address",
          "name": "operator",
          "type": "address"
        },
        {
          "indexed": true,
          "internalType": "address",
          "name": "from",
          "type": "address"
        },
        {
          "indexed": true,
          "internalType": "address",
          "name": "to",
          "type": "address"
        },
        {
          "indexed": false,
          "internalType": "uint256[]",
          "name": "ids",
          "type": "uint256[]"
        },
        {
          "indexed": false,
          "internalType": "uint256[]",
          "name": "values",
          "type": "uint256[]"
        }
      ],
      "name": "TransferBatch",
      "type": "event"
    },
    {
      "anonymous": false,
      "inputs": [
        {
          "indexed": true,
          "internalType": "address",
          "name": "operator",
          "type": "address"
        },
        {
          "indexed": true,
          "internalType": "address",
          "name": "from",
          "type": "address"
        },
        {
          "indexed": true,
          "internalType": "address",
          "name": "to",
          "type": "address"
        },
        {
          "indexed": false,
          "internalType": "uint256",
          "name": "id",
          "type": "uint256"
        },
        {
          "indexed": false,
          "internalType": "uint256",
          "name": "value",
          "type": "uint256"
        }
      ],
      "name": "TransferSingle",
      "type": "event"
    },
    {
      "anonymous": false,
      "inputs": [
        {
          "indexed": false,
          "internalType": "string",
          "name": "value",
          "type": "string"
        },
        {
          "indexed": true,
          "internalType": "uint256",
          "name": "id",
          "type": "uint256"
        }
      ],
      "name": "URI",
      "type": "event"
    },
    {
      "anonymous": false,
      "inputs": [
        {
          "indexed": false,
          "internalType": "address",
          "name": "account",
          "type": "address"
        }
      ],
      "name": "Unpaused",
      "type": "event"
    },
    {
      "inputs": [
        {
          "internalType": "address",
          "name": "account",
          "type": "address"
        },
        {
          "internalType": "uint256",
          "name": "id",
          "type": "uint256"
        }
      ],
      "name": "balanceOf",
      "outputs": [
        {
          "internalType": "uint256",
          "name": "",
          "type": "uint256"
        }
      ],
      "stateMutability": "view",
      "type": "function",
      "constant": true
    },
    {
      "inputs": [
        {
          "internalType": "address[]",
          "name": "accounts",
          "type": "address[]"
        },
        {
          "internalType": "uint256[]",
          "name": "ids",
          "type": "uint256[]"
        }
      ],
      "name": "balanceOfBatch",
      "outputs": [
        {
          "internalType": "uint256[]",
          "name": "",
          "type": "uint256[]"
        }
      ],
      "stateMutability": "view",
      "type": "function",
      "constant": true
    },
    {
      "inputs": [
        {
          "internalType": "address",
          "name": "account",
          "type": "address"
        },
        {
          "internalType": "address",
          "name": "operator",
          "type": "address"
        }
      ],
      "name": "isApprovedForAll",
      "outputs": [
        {
          "internalType": "bool",
          "name": "",
          "type": "bool"
        }
      ],
      "stateMutability": "view",
      "type": "function",
      "constant": true
    },
    {
      "inputs": [],
      "name": "owner",
      "outputs": [
        {
          "internalType": "address",
          "name": "",
          "type": "address"
        }
      ],
      "stateMutability": "view",
      "type": "function",
      "constant": true
    },
    {
      "inputs": [],
      "name": "paused",
      "outputs": [
        {
          "internalType": "bool",
          "name": "",
          "type": "bool"
        }
      ],
      "stateMutability": "view",
      "type": "function",
      "constant": true
    },
    {
      "inputs": [],
      "name": "renounceOwnership",
      "outputs": [],
      "stateMutability": "nonpayable",
      "type": "function"
    },
    {
      "inputs": [
        {
          "internalType": "address",
          "name": "from",
          "type": "address"
        },
        {
          "internalType": "address",
          "name": "to",
          "type": "address"
        },
        {
          "internalType": "uint256[]",
          "name": "ids",
          "type": "uint256[]"
        },
        {
          "internalType": "uint256[]",
          "name": "amounts",
          "type": "uint256[]"
        },
        {
          "internalType": "bytes",
          "name": "data",
          "type": "bytes"
        }
      ],
      "name": "safeBatchTransferFrom",
      "outputs": [],
      "stateMutability": "nonpayable",
      "type": "function"
    },
    {
      "inputs": [
        {
          "internalType": "address",
          "name": "from",
          "type": "address"
        },
        {
          "internalType": "address",
          "name": "to",
          "type": "address"
        },
        {
          "internalType": "uint256",
          "name": "id",
          "type": "uint256"
        },
        {
          "internalType": "uint256",
          "name": "amount",
          "type": "uint256"
        },
        {
          "internalType": "bytes",
          "name": "data",
          "type": "bytes"
        }
      ],
      "name": "safeTransferFrom",
      "outputs": [],
      "stateMutability": "nonpayable",
      "type": "function"
    },
    {
      "inputs": [
        {
          "internalType": "address",
          "name": "operator",
          "type": "address"
        },
        {
          "internalType": "bool",
          "name": "approved",
          "type": "bool"
        }
      ],
      "name": "setApprovalForAll",
      "outputs": [],
      "stateMutability": "nonpayable",
      "type": "function"
    },
    {
      "inputs": [
        {
          "internalType": "bytes4",
          "name": "interfaceId",
          "type": "bytes4"
        }
      ],
      "name": "supportsInterface",
      "outputs": [
        {
          "internalType": "bool",
          "name": "",
          "type": "bool"
        }
      ],
      "stateMutability": "view",
      "type": "function",
      "constant": true
    },
    {
      "inputs": [
        {
          "internalType": "address",
          "name": "newOwner",
          "type": "address"
        }
      ],
      "name": "transferOwnership",
      "outputs": [],
      "stateMutability": "nonpayable",
      "type": "function"
    },
    {
      "inputs": [
        {
          "internalType": "uint256",
          "name": "",
          "type": "uint256"
        }
      ],
      "name": "uri",
      "outputs": [
        {
          "internalType": "string",
          "name": "",
          "type": "string"
        }
      ],
      "stateMutability": "view",
      "type": "function",
      "constant": true
    },
    {
      "inputs": [
        {
          "internalType": "string",
          "name": "newuri",
          "type": "string"
        }
      ],
      "name": "setURI",
      "outputs": [],
      "stateMutability": "nonpayable",
      "type": "function"
    },
    {
      "inputs": [],
      "name": "pause",
      "outputs": [],
      "stateMutability": "nonpayable",
      "type": "function"
    },
    {
      "inputs": [],
      "name": "unpause",
      "outputs": [],
      "stateMutability": "nonpayable",
      "type": "function"
    },
    {
      "inputs": [
        {
          "internalType": "address",
          "name": "account",
          "type": "address"
        },
        {
          "internalType": "uint256",
          "name": "id",
          "type": "uint256"
        },
        {
          "internalType": "uint256",
          "name": "amount",
          "type": "uint256"
        },
        {
          "internalType": "bytes",
          "name": "data",
          "type": "bytes"
        }
      ],
      "name": "mint",
      "outputs": [],
      "stateMutability": "nonpayable",
      "type": "function"
    },
    {
      "inputs": [
        {
          "internalType": "address[]",
          "name": "account",
          "type": "address[]"
        },
        {
          "internalType": "uint256",
          "name": "id",
          "type": "uint256"
        },
        {
          "internalType": "bytes",
          "name": "data",
          "type": "bytes"
        }
      ],
      "name": "mintATOM",
      "outputs": [],
      "stateMutability": "nonpayable",
      "type": "function"
    },
    {
      "inputs": [
        {
          "internalType": "address",
          "name": "to",
          "type": "address"
        },
        {
          "internalType": "uint256[]",
          "name": "ids",
          "type": "uint256[]"
        },
        {
          "internalType": "uint256[]",
          "name": "amounts",
          "type": "uint256[]"
        },
        {
          "internalType": "bytes",
          "name": "data",
          "type": "bytes"
        }
      ],
      "name": "mintBatch",
      "outputs": [],
      "stateMutability": "nonpayable",
      "type": "function"
    }
  ],
  "bytecode": "0x60806040523480156200001157600080fd5b506040518060800160405280604581526020016200208d60459139620000378162000056565b5062000043336200006f565b6003805460ff60a01b19169055620001a4565b80516200006b906002906020840190620000c1565b5050565b600380546001600160a01b038381166001600160a01b0319831681179093556040519116919082907f8be0079c531659141344cd1fd0a4f28419497f9722a3daafe3b4186f6b6457e090600090a35050565b828054620000cf9062000167565b90600052602060002090601f016020900481019282620000f357600085556200013e565b82601f106200010e57805160ff19168380011785556200013e565b828001600101855582156200013e579182015b828111156200013e57825182559160200191906001019062000121565b506200014c92915062000150565b5090565b5b808211156200014c576000815560010162000151565b600181811c908216806200017c57607f821691505b602082108114156200019e57634e487b7160e01b600052602260045260246000fd5b50919050565b611ed980620001b46000396000f3fe608060405234801561001057600080fd5b50600436106101355760003560e01c80636fe42cbe116100b25780638da5cb5b11610081578063e985e9c511610066578063e985e9c51461027c578063f242432a146102b8578063f2fde38b146102cb57600080fd5b80638da5cb5b1461024e578063a22cb4651461026957600080fd5b80636fe42cbe14610218578063715018a61461022b578063731133e9146102335780638456cb591461024657600080fd5b80631f7fdffa116101095780633f4ba83a116100ee5780633f4ba83a146101de5780634e1273f4146101e65780635c975abb1461020657600080fd5b80631f7fdffa146101b85780632eb2c2d6146101cb57600080fd5b8062fdd58e1461013a57806301ffc9a71461016057806302fe5305146101835780630e89341c14610198575b600080fd5b61014d6101483660046115e0565b6102de565b6040519081526020015b60405180910390f35b61017361016e366004611620565b610387565b6040519015158152602001610157565b6101966101913660046116e5565b6103d9565b005b6101ab6101a6366004611736565b6103ed565b604051610157919061179c565b6101966101c6366004611864565b610481565b6101966101d93660046118fd565b61049b565b61019661052e565b6101f96101f4366004611a14565b610540565b6040516101579190611ab3565b600354600160a01b900460ff16610173565b610196610226366004611ac6565b61067e565b6101966106c8565b610196610241366004611b33565b6106da565b6101966106ee565b6003546040516001600160a01b039091168152602001610157565b610196610277366004611b88565b6106fe565b61017361028a366004611bc4565b6001600160a01b03918216600090815260016020908152604080832093909416825291909152205460ff1690565b6101966102c6366004611bf7565b61070d565b6101966102d9366004611c5c565b610799565b60006001600160a01b0383166103615760405162461bcd60e51b815260206004820152602a60248201527f455243313135353a2061646472657373207a65726f206973206e6f742061207660448201527f616c6964206f776e65720000000000000000000000000000000000000000000060648201526084015b60405180910390fd5b506000908152602081815260408083206001600160a01b03949094168352929052205490565b60006001600160e01b03198216636cdb3d1360e11b14806103b857506001600160e01b031982166303a24d0760e21b145b806103d357506301ffc9a760e01b6001600160e01b03198316145b92915050565b6103e1610826565b6103ea81610880565b50565b6060600280546103fc90611c77565b80601f016020809104026020016040519081016040528092919081815260200182805461042890611c77565b80156104755780601f1061044a57610100808354040283529160200191610475565b820191906000526020600020905b81548152906001019060200180831161045857829003601f168201915b50505050509050919050565b610489610826565b61049584848484610893565b50505050565b6001600160a01b0385163314806104b757506104b7853361028a565b61051a5760405162461bcd60e51b815260206004820152602e60248201527f455243313135353a2063616c6c6572206973206e6f7420746f6b656e206f776e60448201526d195c881bdc88185c1c1c9bdd995960921b6064820152608401610358565b6105278585858585610a59565b5050505050565b610536610826565b61053e610cb7565b565b606081518351146105b95760405162461bcd60e51b815260206004820152602960248201527f455243313135353a206163636f756e747320616e6420696473206c656e67746860448201527f206d69736d6174636800000000000000000000000000000000000000000000006064820152608401610358565b6000835167ffffffffffffffff8111156105d5576105d5611644565b6040519080825280602002602001820160405280156105fe578160200160208202803683370190505b50905060005b84518110156106765761064985828151811061062257610622611cb2565b602002602001015185838151811061063c5761063c611cb2565b60200260200101516102de565b82828151811061065b5761065b611cb2565b602090810291909101015261066f81611cde565b9050610604565b509392505050565b610686610826565b6106ad8360008151811061069c5761069c611cb2565b602002602001015183600184610d0c565b6106c38360018151811061069c5761069c611cb2565b505050565b6106d0610826565b61053e6000610e20565b6106e2610826565b61049584848484610d0c565b6106f6610826565b61053e610e8a565b610709338383610ecd565b5050565b6001600160a01b0385163314806107295750610729853361028a565b61078c5760405162461bcd60e51b815260206004820152602e60248201527f455243313135353a2063616c6c6572206973206e6f7420746f6b656e206f776e60448201526d195c881bdc88185c1c1c9bdd995960921b6064820152608401610358565b6105278585858585610fc2565b6107a1610826565b6001600160a01b03811661081d5760405162461bcd60e51b815260206004820152602660248201527f4f776e61626c653a206e6577206f776e657220697320746865207a65726f206160448201527f64647265737300000000000000000000000000000000000000000000000000006064820152608401610358565b6103ea81610e20565b6003546001600160a01b0316331461053e5760405162461bcd60e51b815260206004820181905260248201527f4f776e61626c653a2063616c6c6572206973206e6f7420746865206f776e65726044820152606401610358565b805161070990600290602084019061152b565b6001600160a01b0384166108f35760405162461bcd60e51b815260206004820152602160248201527f455243313135353a206d696e7420746f20746865207a65726f206164647265736044820152607360f81b6064820152608401610358565b81518351146109555760405162461bcd60e51b815260206004820152602860248201527f455243313135353a2069647320616e6420616d6f756e7473206c656e677468206044820152670dad2e6dac2e8c6d60c31b6064820152608401610358565b3360005b84518110156109f15783818151811061097457610974611cb2565b602002602001015160008087848151811061099157610991611cb2565b602002602001015181526020019081526020016000206000886001600160a01b03166001600160a01b0316815260200190815260200160002060008282546109d99190611cf9565b909155508190506109e981611cde565b915050610959565b50846001600160a01b031660006001600160a01b0316826001600160a01b03167f4a39dc06d4c0dbc64b70af90fd698a233a518aa5d07e595d983b8c0526c8f7fb8787604051610a42929190611d11565b60405180910390a46105278160008787878761116d565b8151835114610abb5760405162461bcd60e51b815260206004820152602860248201527f455243313135353a2069647320616e6420616d6f756e7473206c656e677468206044820152670dad2e6dac2e8c6d60c31b6064820152608401610358565b6001600160a01b038416610b1f5760405162461bcd60e51b815260206004820152602560248201527f455243313135353a207472616e7366657220746f20746865207a65726f206164604482015264647265737360d81b6064820152608401610358565b3360005b8451811015610c49576000858281518110610b4057610b40611cb2565b602002602001015190506000858381518110610b5e57610b5e611cb2565b602090810291909101810151600084815280835260408082206001600160a01b038e168352909352919091205490915081811015610bf15760405162461bcd60e51b815260206004820152602a60248201527f455243313135353a20696e73756666696369656e742062616c616e636520666f60448201526939103a3930b739b332b960b11b6064820152608401610358565b6000838152602081815260408083206001600160a01b038e8116855292528083208585039055908b16825281208054849290610c2e908490611cf9565b9250508190555050505080610c4290611cde565b9050610b23565b50846001600160a01b0316866001600160a01b0316826001600160a01b03167f4a39dc06d4c0dbc64b70af90fd698a233a518aa5d07e595d983b8c0526c8f7fb8787604051610c99929190611d11565b60405180910390a4610caf81878787878761116d565b505050505050565b610cbf611322565b6003805460ff60a01b191690557f5db9ee0a495bf2e6ff9c91a7834c1ba4fdd244a5e8aa4e537bd38aeae4b073aa335b6040516001600160a01b03909116815260200160405180910390a1565b6001600160a01b038416610d6c5760405162461bcd60e51b815260206004820152602160248201527f455243313135353a206d696e7420746f20746865207a65726f206164647265736044820152607360f81b6064820152608401610358565b336000610d788561137b565b90506000610d858561137b565b90506000868152602081815260408083206001600160a01b038b16845290915281208054879290610db7908490611cf9565b909155505060408051878152602081018790526001600160a01b03808a1692600092918716917fc3d58168c5ae7397731d063d5bbf3d657854427343f4c083240f7aacaa2d0f62910160405180910390a4610e17836000898989896113c6565b50505050505050565b600380546001600160a01b038381167fffffffffffffffffffffffff0000000000000000000000000000000000000000831681179093556040519116919082907f8be0079c531659141344cd1fd0a4f28419497f9722a3daafe3b4186f6b6457e090600090a35050565b610e926114d1565b6003805460ff60a01b1916600160a01b1790557f62e78cea01bee320cd4e420270b5ea74000d11b0c9f74754ebdbfc544b05a258610cef3390565b816001600160a01b0316836001600160a01b03161415610f555760405162461bcd60e51b815260206004820152602960248201527f455243313135353a2073657474696e6720617070726f76616c2073746174757360448201527f20666f722073656c6600000000000000000000000000000000000000000000006064820152608401610358565b6001600160a01b03838116600081815260016020908152604080832094871680845294825291829020805460ff191686151590811790915591519182527f17307eab39ab6107e8899845ad3d59bd9653f200f220920489ca2b5937696c31910160405180910390a3505050565b6001600160a01b0384166110265760405162461bcd60e51b815260206004820152602560248201527f455243313135353a207472616e7366657220746f20746865207a65726f206164604482015264647265737360d81b6064820152608401610358565b3360006110328561137b565b9050600061103f8561137b565b90506000868152602081815260408083206001600160a01b038c168452909152902054858110156110c55760405162461bcd60e51b815260206004820152602a60248201527f455243313135353a20696e73756666696369656e742062616c616e636520666f60448201526939103a3930b739b332b960b11b6064820152608401610358565b6000878152602081815260408083206001600160a01b038d8116855292528083208985039055908a16825281208054889290611102908490611cf9565b909155505060408051888152602081018890526001600160a01b03808b16928c821692918816917fc3d58168c5ae7397731d063d5bbf3d657854427343f4c083240f7aacaa2d0f62910160405180910390a4611162848a8a8a8a8a6113c6565b505050505050505050565b6001600160a01b0384163b15610caf5760405163bc197c8160e01b81526001600160a01b0385169063bc197c81906111b19089908990889088908890600401611d3f565b602060405180830381600087803b1580156111cb57600080fd5b505af19250505080156111fb575060408051601f3d908101601f191682019092526111f891810190611d9d565b60015b6112b157611207611dba565b806308c379a01415611241575061121c611dd6565b806112275750611243565b8060405162461bcd60e51b8152600401610358919061179c565b505b60405162461bcd60e51b815260206004820152603460248201527f455243313135353a207472616e7366657220746f206e6f6e2d4552433131353560448201527f526563656976657220696d706c656d656e7465720000000000000000000000006064820152608401610358565b6001600160e01b0319811663bc197c8160e01b14610e175760405162461bcd60e51b815260206004820152602860248201527f455243313135353a204552433131353552656365697665722072656a656374656044820152676420746f6b656e7360c01b6064820152608401610358565b600354600160a01b900460ff1661053e5760405162461bcd60e51b815260206004820152601460248201527f5061757361626c653a206e6f74207061757365640000000000000000000000006044820152606401610358565b604080516001808252818301909252606091600091906020808301908036833701905050905082816000815181106113b5576113b5611cb2565b602090810291909101015292915050565b6001600160a01b0384163b15610caf5760405163f23a6e6160e01b81526001600160a01b0385169063f23a6e619061140a9089908990889088908890600401611e60565b602060405180830381600087803b15801561142457600080fd5b505af1925050508015611454575060408051601f3d908101601f1916820190925261145191810190611d9d565b60015b61146057611207611dba565b6001600160e01b0319811663f23a6e6160e01b14610e175760405162461bcd60e51b815260206004820152602860248201527f455243313135353a204552433131353552656365697665722072656a656374656044820152676420746f6b656e7360c01b6064820152608401610358565b600354600160a01b900460ff161561053e5760405162461bcd60e51b815260206004820152601060248201527f5061757361626c653a20706175736564000000000000000000000000000000006044820152606401610358565b82805461153790611c77565b90600052602060002090601f016020900481019282611559576000855561159f565b82601f1061157257805160ff191683800117855561159f565b8280016001018555821561159f579182015b8281111561159f578251825591602001919060010190611584565b506115ab9291506115af565b5090565b5b808211156115ab57600081556001016115b0565b80356001600160a01b03811681146115db57600080fd5b919050565b600080604083850312156115f357600080fd5b6115fc836115c4565b946020939093013593505050565b6001600160e01b0319811681146103ea57600080fd5b60006020828403121561163257600080fd5b813561163d8161160a565b9392505050565b634e487b7160e01b600052604160045260246000fd5b601f8201601f1916810167ffffffffffffffff8111828210171561168057611680611644565b6040525050565b600067ffffffffffffffff8311156116a1576116a1611644565b6040516116b8601f8501601f19166020018261165a565b8091508381528484840111156116cd57600080fd5b83836020830137600060208583010152509392505050565b6000602082840312156116f757600080fd5b813567ffffffffffffffff81111561170e57600080fd5b8201601f8101841361171f57600080fd5b61172e84823560208401611687565b949350505050565b60006020828403121561174857600080fd5b5035919050565b6000815180845260005b8181101561177557602081850181015186830182015201611759565b81811115611787576000602083870101525b50601f01601f19169290920160200192915050565b60208152600061163d602083018461174f565b600067ffffffffffffffff8211156117c9576117c9611644565b5060051b60200190565b600082601f8301126117e457600080fd5b813560206117f1826117af565b6040516117fe828261165a565b83815260059390931b850182019282810191508684111561181e57600080fd5b8286015b848110156118395780358352918301918301611822565b509695505050505050565b600082601f83011261185557600080fd5b61163d83833560208501611687565b6000806000806080858703121561187a57600080fd5b611883856115c4565b9350602085013567ffffffffffffffff808211156118a057600080fd5b6118ac888389016117d3565b945060408701359150808211156118c257600080fd5b6118ce888389016117d3565b935060608701359150808211156118e457600080fd5b506118f187828801611844565b91505092959194509250565b600080600080600060a0868803121561191557600080fd5b61191e866115c4565b945061192c602087016115c4565b9350604086013567ffffffffffffffff8082111561194957600080fd5b61195589838a016117d3565b9450606088013591508082111561196b57600080fd5b61197789838a016117d3565b9350608088013591508082111561198d57600080fd5b5061199a88828901611844565b9150509295509295909350565b600082601f8301126119b857600080fd5b813560206119c5826117af565b6040516119d2828261165a565b83815260059390931b85018201928281019150868411156119f257600080fd5b8286015b8481101561183957611a07816115c4565b83529183019183016119f6565b60008060408385031215611a2757600080fd5b823567ffffffffffffffff80821115611a3f57600080fd5b611a4b868387016119a7565b93506020850135915080821115611a6157600080fd5b50611a6e858286016117d3565b9150509250929050565b600081518084526020808501945080840160005b83811015611aa857815187529582019590820190600101611a8c565b509495945050505050565b60208152600061163d6020830184611a78565b600080600060608486031215611adb57600080fd5b833567ffffffffffffffff80821115611af357600080fd5b611aff878388016119a7565b9450602086013593506040860135915080821115611b1c57600080fd5b50611b2986828701611844565b9150509250925092565b60008060008060808587031215611b4957600080fd5b611b52856115c4565b93506020850135925060408501359150606085013567ffffffffffffffff811115611b7c57600080fd5b6118f187828801611844565b60008060408385031215611b9b57600080fd5b611ba4836115c4565b915060208301358015158114611bb957600080fd5b809150509250929050565b60008060408385031215611bd757600080fd5b611be0836115c4565b9150611bee602084016115c4565b90509250929050565b600080600080600060a08688031215611c0f57600080fd5b611c18866115c4565b9450611c26602087016115c4565b93506040860135925060608601359150608086013567ffffffffffffffff811115611c5057600080fd5b61199a88828901611844565b600060208284031215611c6e57600080fd5b61163d826115c4565b600181811c90821680611c8b57607f821691505b60208210811415611cac57634e487b7160e01b600052602260045260246000fd5b50919050565b634e487b7160e01b600052603260045260246000fd5b634e487b7160e01b600052601160045260246000fd5b6000600019821415611cf257611cf2611cc8565b5060010190565b60008219821115611d0c57611d0c611cc8565b500190565b604081526000611d246040830185611a78565b8281036020840152611d368185611a78565b95945050505050565b60006001600160a01b03808816835280871660208401525060a06040830152611d6b60a0830186611a78565b8281036060840152611d7d8186611a78565b90508281036080840152611d91818561174f565b98975050505050505050565b600060208284031215611daf57600080fd5b815161163d8161160a565b600060033d1115611dd35760046000803e5060005160e01c5b90565b600060443d1015611de45790565b6040516003193d81016004833e81513d67ffffffffffffffff8160248401118184111715611e1457505050505090565b8285019150815181811115611e2c5750505050505090565b843d8701016020828501011115611e465750505050505090565b611e556020828601018761165a565b509095945050505050565b60006001600160a01b03808816835280871660208401525084604083015283606083015260a06080830152611e9860a083018461174f565b97965050505050505056fea2646970667358221220b74a02dbb2acad45aecd41635b08c83e4fcc3b3dc42fea07f382f305a2ba8ff564736f6c6343000809003368747470733a2f2f6769746875622e636f6d2f53757065726861636b41544f4d2f4f6e2d636861696e2f626c6f622f6d61696e2f41544f4d4d657461646174612e6a736f6e",
  "immutableReferences": {},
  "source": "// SPDX-License-Identifier: MIT\npragma solidity 0.8.9;\n\nimport \"@openzeppelin/contracts/token/ERC1155/ERC1155.sol\";\nimport \"@openzeppelin/contracts/access/Ownable.sol\";\nimport \"@openzeppelin/contracts/security/Pausable.sol\";\n\ncontract ATOM is ERC1155, Ownable, Pausable {\n    constructor() ERC1155(\"https://github.com/SuperhackATOM/On-chain/blob/main/ATOMMetadata.json\") {}\n\n    function setURI(string memory newuri) public onlyOwner {\n        _setURI(newuri);\n    }\n\n    function pause() public onlyOwner {\n        _pause();\n    }\n\n    function unpause() public onlyOwner {\n        _unpause();\n    }\n\n    function mint(address account, uint256 id, uint256 amount, bytes memory data)\n        public\n        onlyOwner\n    {   \n        _mint(account, id, amount, data);\n    }\n\n    function mintATOM(address[] memory account, uint256 id, bytes memory data)\n        public\n        onlyOwner\n    {   \n        _mint(account[0], id, 1, data);\n        _mint(account[1], id, 1, data);\n    }\n\n    function mintBatch(address to, uint256[] memory ids, uint256[] memory amounts, bytes memory data)\n        public\n        onlyOwner\n    {\n        _mintBatch(to, ids, amounts, data);\n    }\n\n}",
  "sourcePath": "/Users/vlad/Development/SupehackOP/contracts/optimism/ATOM.sol",
  "compiler": {
    "name": "solc",
    "version": "0.8.9+commit.e5eed63a.Emscripten.clang"
  },
  "schemaVersion": "3.4.15",
  "updatedAt": "2023-08-13T04:25:44.720Z",
  "networkType": "ethereum",
  "devdoc": {
    "kind": "dev",
    "methods": {
      "balanceOf(address,uint256)": {
        "details": "See {IERC1155-balanceOf}. Requirements: - `account` cannot be the zero address."
      },
      "balanceOfBatch(address[],uint256[])": {
        "details": "See {IERC1155-balanceOfBatch}. Requirements: - `accounts` and `ids` must have the same length."
      },
      "isApprovedForAll(address,address)": {
        "details": "See {IERC1155-isApprovedForAll}."
      },
      "owner()": {
        "details": "Returns the address of the current owner."
      },
      "paused()": {
        "details": "Returns true if the contract is paused, and false otherwise."
      },
      "renounceOwnership()": {
        "details": "Leaves the contract without owner. It will not be possible to call `onlyOwner` functions. Can only be called by the current owner. NOTE: Renouncing ownership will leave the contract without an owner, thereby disabling any functionality that is only available to the owner."
      },
      "safeBatchTransferFrom(address,address,uint256[],uint256[],bytes)": {
        "details": "See {IERC1155-safeBatchTransferFrom}."
      },
      "safeTransferFrom(address,address,uint256,uint256,bytes)": {
        "details": "See {IERC1155-safeTransferFrom}."
      },
      "setApprovalForAll(address,bool)": {
        "details": "See {IERC1155-setApprovalForAll}."
      },
      "supportsInterface(bytes4)": {
        "details": "See {IERC165-supportsInterface}."
      },
      "transferOwnership(address)": {
        "details": "Transfers ownership of the contract to a new account (`newOwner`). Can only be called by the current owner."
      },
      "uri(uint256)": {
        "details": "See {IERC1155MetadataURI-uri}. This implementation returns the same URI for *all* token types. It relies on the token type ID substitution mechanism https://eips.ethereum.org/EIPS/eip-1155#metadata[defined in the EIP]. Clients calling this function must replace the `\\{id\\}` substring with the actual token type ID."
      }
    },
    "version": 1
  },
  "userdoc": {
    "kind": "user",
    "methods": {},
    "version": 1
  }
}